:020000040800F2
:1060000000FC002035D60008B1D600083DD70008B6
:10601000A9D70008ABD70008ADD7000800000000E2
:10602000000000000000000000000000AFD70008E2
:10603000B1D7000800000000B3D70008B5D70008AA
:1060400085D6000885D60008E1D7000885D6000867
:1060500085D6000885D6000837D800083DD8000846
:1060600043D8000849D800084FD80008EDD70008E9
:10607000F9D7000805D8000811D8000885D600080F
:1060800085D6000885D6000885D6000885D6000884
:1060900085D6000885D6000855D8000885D60008A2
:1060A00085D6000885D6000885D6000885D6000864
:1060B00085D6000885D6000885D6000885D6000854
:1060C00001D900080DD9000885D6000885D600083A
:1060D0001DD8000835D80008E9D8000885D6000882
:1060E00085D6000895D80008C9D7000885D60008CD
:1060F00085D6000885D6000885D6000885D6000814
:1061000085D6000885D60008D5D7000885D60008B2
:1061100085D6000885D6000885D6000885D60008F3
:1061200085D6000885D6000885D6000885D60008E3
:0861300085D6000885D60008A1
:1061400010B5054C237833B9044B13B10448AFF3B1
:1061500000800123237010BD480E002000000000C5
:1061600094EE020808B5034B1BB103490348AFF393
:10617000008008BD000000004C0E002094EE0208D4
:1061800010F8012B11F8013B012A28BF9A42F7D0E1
:10619000D01A7047034613F8012B002AFBD1181AB6
:1061A00001387047000000000000000000000000FF
:1061B00001F0FF01102A2BDB10F0070F08D010F8B8
:1061C000013B013A8B422DD010F0070F42B3F6D1BC
:1061D000F0B441EA012141EA014122F007047FF0D5
:1061E00000070023F0E80256083C85EA010586EA2C
:1061F000010685FA47F5A3FA87F586FA47F6A5FA68
:1062000087F68EB9EED1F0BC01F0FF0102F0070273
:1062100032B110F8013B013A83EA010313B1F8D11E
:106220000020704701387047002D06BF35460338FF
:10623000073815F0010F07D1013015F4807F02BF38
:10624000013015F4C03F0130F0BC0138704700BF89
:1062500081F0004102E000BF83F0004330B54FEA17
:1062600041044FEA430594EA050F08BF90EA020F84
:106270001FBF54EA000C55EA020C7FEA645C7FEA17
:10628000655C00F0E2804FEA5454D4EB5555B8BF3A
:106290006D420CDD2C4480EA020281EA030382EAAB
:1062A000000083EA010180EA020281EA0303362D3D
:1062B00088BF30BD11F0004F4FEA01314FF4801C10
:1062C0004CEA113102D0404261EB410113F0004F22
:1062D0004FEA03334CEA133302D0524263EB4303D9
:1062E00094EA050F00F0A780A4F10104D5F1200E77
:1062F0000DDB02FA0EFC22FA05F2801841F10001D2
:1063000003FA0EF2801843FA05F359410EE0A5F1A5
:1063100020050EF1200E012A03FA0EFC28BF4CF0D6
:10632000020C43FA05F3C01851EBE37101F000458C
:1063300007D54FF0000EDCF1000C7EEB00006EEB99
:106340000101B1F5801F1BD3B1F5001F0CD3490823
:106350005FEA30004FEA3C0C04F101044FEA44527A
:1063600012F5800F80F09A80BCF1004F08BF5FEA01
:10637000500C50F1000041EB045141EA050130BDE1
:106380005FEA4C0C404141EB0101013C28BFB1F5F3
:10639000801FE9D291F0000F04BF01460020B1FA3E
:1063A00081F308BF2033A3F10B03B3F120020CDA11
:1063B0000C3208DD02F1140CC2F10C0201FA0CF0EF
:1063C00021FA02F10CE002F11402D8BFC2F1200C54
:1063D00001FA02F120FA0CFCDCBF41EA0C0190400A
:1063E000E41AA2BF01EB0451294330BD6FEA040453
:1063F0001F3C1CDA0C340EDC04F11404C4F120023E
:1064000020FA04F001FA02F340EA030021FA04F34F
:1064100045EA030130BDC4F10C04C4F1200220FAA6
:1064200002F001FA04F340EA0300294630BD21FAE4
:1064300004F0294630BD94F0000F83F4801306BFAA
:1064400081F480110134013D4EE77FEA645C18BF9E
:106450007FEA655C29D094EA050F08BF90EA020F35
:1064600005D054EA000C04BF1946104630BD91EA2D
:10647000030F1EBF0021002030BD5FEA545C05D130
:106480004000494128BF41F0004130BD14F580046F
:106490003CBF01F5801130BD01F0004545F0FE41E3
:1064A00041F470014FF0000030BD7FEA645C1ABF18
:1064B000194610467FEA655C1CBF0B46024650EA4F
:1064C000013406BF52EA033591EA030F41F400217B
:1064D00030BD00BF90F0000F04BF0021704730B501
:1064E0004FF4806404F132044FF000054FF00001D6
:1064F00050E700BF90F0000F04BF0021704730B597
:106500004FF4806404F1320410F0004548BF40426B
:106510004FF000013EE700BF42004FEAE2014FEAC0
:1065200031014FEA02701FBF12F07F4393F07F4F9B
:1065300081F06051704732F07F4208BF704793F09E
:106540007F4F04BF41F40021704730B54FF46074B1
:1065500001F0004521F000411CE700BF50EA0102B4
:1065600008BF704730B54FF000050AE050EA01025D
:1065700008BF704730B511F0004502D5404261EBCD
:1065800041014FF4806404F132045FEA915C3FF40E
:10659000D8AE4FF003025FEADC0C18BF03325FEAAB
:1065A000DC0C18BF033202EBDC02C2F1200300FA5C
:1065B00003FC20FA02F001FA03FE40EA0E0021FA81
:1065C00002F11444BDE600BF70B54FF0FF0C4CF46F
:1065D000E06C1CEA11541DBF1CEA135594EA0C0F21
:1065E00095EA0C0F00F0DEF82C4481EA030621EA5C
:1065F0004C5123EA4C5350EA013518BF52EA033597
:1066000041F4801143F4801338D0A0FB02CE4FF048
:106610000005E1FB02E506F00042E0FB03E54FF078
:106620000006E1FB03569CF0000F18BF4EF0010E70
:10663000A4F1FF04B6F5007F64F5407404D25FEA6C
:106640004E0E6D4146EB060642EAC62141EA55511F
:106650004FEAC52040EA5E504FEACE2EB4F1FD0C61
:1066600088BFBCF5E06F1ED8BEF1004F08BF5FEADF
:10667000500E50F1000041EB045170BD06F0004691
:1066800046EA010140EA020081EA0301B4EB5C043E
:10669000C2BFD4EB0C0541EA045170BD41F4801136
:1066A0004FF0000E013C00F3AB8014F1360FDEBF5B
:1066B000002001F0004170BDC4F10004203C35DA37
:1066C0000C341BDC04F11404C4F1200500FA05F3BA
:1066D00020FA04F001FA05F240EA020001F000425B
:1066E00021F0004110EBD37021FA04F642EB0601D1
:1066F0005EEA430E08BF20EAD37070BDC4F10C04FB
:10670000C4F1200500FA04F320FA05F001FA04F2BE
:1067100040EA020001F0004110EBD37041F10001AA
:106720005EEA430E08BF20EAD37070BDC4F12005B5
:1067300000FA05F24EEA020E20FA04F301FA05F21D
:1067400043EA020321FA04F001F0004121FA04F2C5
:1067500020EA020000EBD3705EEA430E08BF20EA95
:10676000D37070BD94F0000F0FD101F000464000CF
:1067700041EB010111F4801F08BF013CF7D041EA51
:10678000060195F0000F18BF704703F00046520055
:1067900043EB030313F4801F08BF013DF7D043EA26
:1067A0000603704794EA0C0F0CEA135518BF95EADC
:1067B0000C0F0CD050EA410618BF52EA4306D1D163
:1067C00081EA030101F000414FF0000070BD50EA82
:1067D000410606BF1046194652EA430619D094EA0C
:1067E0000C0F02D150EA013613D195EA0C0F05D1F6
:1067F00052EA03361CBF104619460AD181EA03014A
:1068000001F0004141F0FE4141F470014FF0000001
:1068100070BD41F0FE4141F4780170BD70B54FF09C
:10682000FF0C4CF4E06C1CEA11541DBF1CEA13551C
:1068300094EA0C0F95EA0C0F00F0A7F8A4EB0504FE
:1068400081EA030E52EA03354FEA013100F08880F5
:106850004FEA03334FF0805545EA131343EA1263BE
:106860004FEA022245EA111545EA10654FEA002673
:106870000EF000419D4208BF964244F1FD0404F52C
:10688000407402D25B084FEA3202B61A65EB030588
:106890005B084FEA32024FF480104FF4002CB6EB45
:1068A000020E75EB030E22BFB61A754640EA0C00C5
:1068B0005B084FEA3202B6EB020E75EB030E22BF05
:1068C000B61A754640EA5C005B084FEA3202B6EB46
:1068D000020E75EB030E22BFB61A754640EA9C0005
:1068E0005B084FEA3202B6EB020E75EB030E22BFD5
:1068F000B61A754640EADC0055EA060E18D04FEA93
:10690000051545EA16754FEA06164FEAC30343EA32
:1069100052734FEAC2025FEA1C1CC0D111F4801FFF
:106920000BD141EA00014FF000004FF0004CB6E7F8
:1069300011F4801F04BF01430020B4F1FD0C88BF97
:10694000BCF5E06F3FF6AFAEB5EB030C04BFB6EBA2
:10695000020C5FEA500C50F1000041EB045170BD95
:106960000EF0004E4EEA113114EB5C04C2BFD4EBC2
:106970000C0541EA045170BD41F480114FF0000E46
:10698000013C90E645EA060E8DE60CEA135594EAC2
:106990000C0F08BF95EA0C0F3FF43BAF94EA0C0FC5
:1069A0000AD150EA01347FF434AF95EA0C0F7FF43A
:1069B00025AF104619462CE795EA0C0F06D152EA8E
:1069C00003353FF4FDAE1046194622E750EA410672
:1069D00018BF52EA43067FF4C5AE50EA41047FF483
:1069E0000DAF52EA43057FF4EBAE12E74FF0FF3CE8
:1069F00006E000BF4FF0010C02E000BF4FF0010CB9
:106A00004DF804CD4FEA410C7FEA6C5C4FEA430C31
:106A100018BF7FEA6C5C1BD001B050EA410C0CBF80
:106A200052EA430C91EA030F02BF90EA020F0020E2
:106A3000704710F1000F91EA030F58BF994208BF49
:106A400090422CBFD8176FEAE37040F00100704706
:106A50004FEA410C7FEA6C5C02D150EA013C07D15D
:106A60004FEA430C7FEA6C5CD6D152EA033CD3D0A8
:106A70005DF8040B704700BF8446104662468C46A2
:106A80001946634600E000BF01B5FFF7B7FF0028D5
:106A900048BF10F1000F01BD4DF808EDFFF7F4FFFE
:106AA0000CBF012000205DF808FB00BF4DF808ED89
:106AB000FFF7EAFF34BF012000205DF808FB00BFAC
:106AC0004DF808EDFFF7E0FF94BF012000205DF8CE
:106AD00008FB00BF4DF808EDFFF7CEFF94BF012083
:106AE00000205DF808FB00BF4DF808EDFFF7C4FF7C
:106AF00034BF012000205DF808FB00BF4FEA410CC5
:106B00007FEA6C5C02D150EA013C0AD14FEA430CA7
:106B10007FEA6C5C02D152EA033C02D14FF00000E4
:106B200070474FF0010070474FEA410212F5001222
:106B300015D211D56FF47873B3EB625212D94FEAC4
:106B4000C12343F0004343EA505311F0004F23FAAE
:106B500002F018BF404270474FF00000704750EA03
:106B6000013005D111F0004008BF6FF000407047C0
:106B70004FF00000704700BF4A0011D212F500121A
:106B800011D20DD56FF47873B3EB62520ED44FEA85
:106B9000C12343F0004343EA505323FA02F0704705
:106BA0004FF00000704750EA013002D14FF0FF3043
:106BB00070474FF0000070474FEA4102B2F1E043E6
:106BC00024BFB3F5001CDCF1FE5C0DD901F0004CD4
:106BD0004FEAC0024CEA5070B2F1004F40EB830024
:106BE00008BF20F00100704711F0804F21D113F150
:106BF0003872BCBF01F00040704741F480114FEA89
:106C00005252C2F11802C2F1200C10FA0CF320FA11
:106C100002F018BF40F001004FEAC1234FEAD3232E
:106C200003FA0CFC40EA0C0023FA02F34FEA430398
:106C3000CCE77FEA625307D150EA01331EBF4FF021
:106C4000FE4040F44000704701F0004040F0FE403C
:106C500040F40000704700BF80F0004002E000BF39
:106C600081F0004142001FBF5FEA410392EA030F37
:106C70007FEA226C7FEA236C6AD04FEA1262D2EB81
:106C80001363C1BFD218414048404140B8BF5B4286
:106C9000192B88BF704710F0004F40F4000020F01F
:106CA0007F4018BF404211F0004F41F4000121F035
:106CB0007F4118BF494292EA030F3FD0A2F101027F
:106CC00041FA03FC10EB0C00C3F1200301FA03F1BD
:106CD00000F0004302D5494260EB4000B0F5000FE0
:106CE00013D3B0F1807F06D340084FEA310102F19F
:106CF0000102FE2A51D2B1F1004F40EBC25008BF51
:106D000020F0010040EA03007047490040EB00001A
:106D1000013A28BFB0F5000FEDD2B0FA80FCACF11B
:106D2000080CB2EB0C0200FA0CF0AABF00EBC25048
:106D300052421843BCBFD0401843704792F0000F36
:106D400081F4000106BF80F400000132013BB5E789
:106D50004FEA41037FEA226C18BF7FEA236C21D0FF
:106D600092EA030F04D092F0000F08BF0846704764
:106D700090EA010F1CBF0020704712F07F4F04D132
:106D8000400028BF40F00040704712F100723CBF45
:106D900000F50000704700F0004343F0FE4040F46F
:106DA000000070477FEA226216BF08467FEA23632D
:106DB0000146420206BF5FEA412390EA010F40F418
:106DC000800070474FF0000304E000BF10F0004364
:106DD00048BF40425FEA000C08BF704743F096434B
:106DE00001464FF000001CE050EA010208BF704766
:106DF0004FF000030AE000BF50EA010208BF7047ED
:106E000011F0004302D5404261EB41015FEA010C01
:106E100002BF84460146002043F0B64308BFA3F1F9
:106E20008053A3F50003BCFA8CF2083AA3EBC253DB
:106E300010DB01FA02FC634400FA02FCC2F12002FA
:106E4000BCF1004F20FA02F243EB020008BF20F031
:106E50000100704702F1200201FA02FCC2F1200297
:106E600050EA4C0021FA02F243EB020008BF20EA8C
:106E7000DC7070474FF0FF0C1CEAD0521EBF1CEABA
:106E8000D15392EA0C0F93EA0C0F6FD01A4480EAA8
:106E9000010C400218BF5FEA41211ED04FF0006391
:106EA00043EA501043EA5111A0FB01310CF00040BD
:106EB000B1F5000F3EBF490041EAD3715B0040EAE3
:106EC000010062F17F02FD2A1DD8B3F1004F40EBB3
:106ED000C25008BF20F00100704790F0000F0CF086
:106EE000004C08BF49024CEA502040EA51207F3A4A
:106EF000C2BFD2F1FF0340EAC250704740F4000025
:106F00004FF00003013A5DDC12F1190FDCBF00F015
:106F100000407047C2F10002410021FA02F1C2F1C3
:106F2000200200FA02FC5FEA310040F1000053EA5F
:106F30004C0308BF20EADC70704792F0000F00F0AD
:106F4000004C02BF400010F4000F013AF9D040EAB3
:106F50000C0093F0000F01F0004C02BF490011F447
:106F6000000F013BF9D041EA0C018FE70CEAD15345
:106F700092EA0C0F18BF93EA0C0F0AD030F0004CC5
:106F800018BF31F0004CD8D180EA010000F0004079
:106F9000704790F0000F17BF90F0004F084691F037
:106FA000000F91F0004F14D092EA0C0F01D1420271
:106FB0000FD193EA0C0F03D14B0218BF084608D13A
:106FC00080EA010000F0004040F0FE4040F4000084
:106FD000704740F0FE4040F4400070474FF0FF0C17
:106FE0001CEAD0521EBF1CEAD15392EA0C0F93EA5E
:106FF0000C0F69D0A2EB030280EA010C49024FEAB0
:10700000402037D04FF0805343EA111143EA101368
:107010000CF000408B4238BF5B0042F17D024FF420
:10702000000C8B4224BF5B1A40EA0C00B3EB510FFB
:1070300024BFA3EB510340EA5C00B3EB910F24BFE4
:10704000A3EB910340EA9C00B3EBD10F24BFA3EB69
:10705000D10340EADC001B0118BF5FEA1C1CE0D131
:10706000FD2A3FF650AF8B4240EBC25008BF20F0E4
:10707000010070470CF0004C4CEA50207F32C2BF38
:10708000D2F1FF0340EAC250704740F400004FF0D5
:107090000003013A37E792F0000F00F0004C02BF06
:1070A000400010F4000F013AF9D040EA0C0093F0D0
:1070B000000F01F0004C02BF490011F4000F013B2A
:1070C000F9D041EA0C0195E70CEAD15392EA0C0F92
:1070D00008D142027FF47DAF93EA0C0F7FF470AFCA
:1070E000084676E793EA0C0F04D14B023FF44CAF0D
:1070F00008466EE730F0004C18BF31F0004CCAD1A2
:1071000030F000427FF45CAF31F000437FF43CAFDD
:107110005FE700BF4FF0FF3C06E000BF4FF0010CFF
:1071200002E000BF4FF0010C4DF804CD4FEA4002E1
:107130004FEA41037FEA226C18BF7FEA236C11D02B
:1071400001B052EA530C18BF90EA010F58BFB2EBDE
:10715000030088BFC81738BF6FEAE17018BF40F05E
:10716000010070477FEA226C02D15FEA402C05D112
:107170007FEA236CE4D15FEA412CE1D05DF8040B97
:10718000704700BF844608466146FFE70FB5FFF72A
:10719000C9FF002848BF10F1000F0FBD4DF808EDE2
:1071A000FFF7F4FF0CBF012000205DF808FB00BFD3
:1071B0004DF808EDFFF7EAFF34BF012000205DF82D
:1071C00008FB00BF4DF808EDFFF7E0FF94BF01207A
:1071D00000205DF808FB00BF4DF808EDFFF7D2FF77
:1071E00094BF012000205DF808FB00BF4DF808EDBA
:1071F000FFF7C8FF34BF012000205DF808FB00BF87
:1072000053B94AB9002908BF00281CBF4FF0FF310D
:107210004FF0FF3000F06CB9ADF1080C6DE904CE11
:1072200000F006F8DDF804E0DDE9022304B0704761
:107230002DE9F047089E0D4604468E46002B40F08F
:1072400082808A42174646D9B2FA82F24AB1C2F126
:10725000200105FA02F320FA01F1974041EA030EFA
:1072600094404FEA1748230CBEFBF8FCB9B208FB68
:107270001CEE43EA0E430CFB01F098420AD9FB18BE
:107280000CF1FF3580F01681984240F21381ACF189
:10729000020C3B441B1AA4B2B3FBF8F008FB1033FA
:1072A00044EA034400FB01F1A14209D93C1900F171
:1072B000FF3380F00181A14240F2FE8002383C445D
:1072C000641A40EA0C4000211EB1D4400023C6E9F4
:1072D0000043BDE8F08702B9FFDEB2FA82F2002A6D
:1072E0004FD1CB1B4FEA174E1FFA87F80121B3FB92
:1072F000FEFC250C0EFB1C3345EA034508FB0CF392
:10730000AB4207D97D190CF1FF3002D2AB4200F23B
:10731000E7808446ED1AA3B2B5FBFEF00EFB1055D4
:1073200043EA054408FB00F8A04507D93C1900F1E1
:10733000FF3302D2A04500F2D7801846A4EB080420
:1073400040EA0C40C0E78B4208D9002E00F0AF8025
:107350000021C6E900050846BDE8F087B3FA83F1CD
:1073600000294BD1AB4202D3824200F2B780841A8B
:1073700065EB030301209E46002EAAD0C6E9004E0D
:10738000A7E7C2F1200C01FA02F3974020FA0CF0B3
:107390004FEA174E21FA0CFC1843BCFBFEF1050C1A
:1073A0000EFB11CC1FFA87F845EA0C4501FB08F3E8
:1073B000AB4204FA02F409D97D1901F1FF3C80F0D7
:1073C0008B80AB4240F2888002393D44EB1A85B293
:1073D000B3FBFEF00EFB103345EA034500FB08F358
:1073E000AB4207D97D1900F1FF3C71D2AB426FD996
:1073F00002383D44EB1A40EA014178E7C1F1200C24
:107400008B4022FA0CF71F4320FA0CF405FA01F323
:107410004FEA174E25FA0CF51C43230CB5FBFEF979
:107420001FFA87F80EFB195543EA054509FB08FAD0
:10743000AA4502FA01F200FA01F308D97D1909F10F
:10744000FF3047D2AA4545D9A9F102093D44A5EB31
:107450000A05A4B2B5FBFEF00EFB105544EA054444
:1074600000FB08F8A04507D93C1900F1FF352DD2E3
:10747000A0452BD902383C4440EA0940A4EB08045B
:10748000A0FB02894C45C6464D4619D316D05EB1C5
:10749000B3EB0E0264EB050404FA0CFCCA404CEAA0
:1074A0000202CC40C6E900240021BDE8F087314645
:1074B00030460EE7AC46EDE6184601E74345E6D216
:1074C000B8EB020E69EB07050138E0E72846D3E781
:1074D00060468FE78146BAE7614677E708464BE7A3
:1074E000ACF1020C3D4415E702383C4426E700BFEE
:1074F000704700BF37B5556E0C4635B1012D2CD104
:1075000017491068FEF73CFE38BB164B1B78B3B129
:107510003DB92146144826F0F0F81449124826F0E7
:10752000DCF8134B1868FEF7F7FF0B460221024602
:1075300000910D4826F03CFA002003B030BD3DB963
:107540002146094826F0D9F80849074826F0C5F829
:107550000849054826F0FCF8EEE70220EDE700BFF9
:107560009C310308A70E00201C63002025F00208B0
:10757000A80E00202824030837B5556E0C4635B1F7
:10758000012D2CD117491068FEF7FAFD38BB164BB8
:107590001B78B3B13DB92146144826F0AEF8144922
:1075A000124826F09AF8134B1868FEF7B5FF0B4601
:1075B0000221024600910D4826F0FAF9002003B09E
:1075C00030BD3DB92146094826F097F808490748DB
:1075D00026F083F80849054826F0BAF8EEE70220BD
:1075E000EDE700BF9C310308A70E00201C630020BC
:1075F00025F00208AC0E00202824030837B5556E8C
:107600000C4635B1012D2CD117491068FEF7B8FD95
:1076100038BB164B1B78B3B13DB92146144826F050
:107620006CF81449124826F058F8134B1868FEF706
:1076300073FF0B460221024600910D4826F0B8F96F
:10764000002003B030BD3DB92146094826F055F869
:107650000849074826F041F80849054826F078F817
:10766000EEE70220EDE700BF9C310308A70E0020E3
:107670001C63002025F00208B00E00202824030817
:1076800073B5566E0D4636B1012E23D112491068DE
:10769000FEF776FDF0B9114B1C78B4B13EB929461E
:1076A0000F4826F02AF80F490D4826F016F80E4B21
:1076B0005869FEF731FF0B46022102460091084847
:1076C00026F076F9002002B070BD0849044826F083
:1076D0003FF8F7E70220F6E79C3103080C1700207B
:1076E0001C63002025F00208381700202824030816
:1076F00073B5566E0D4636B1012E23D1124910686E
:10770000FEF73EFDF0B9114B1C78B4B13EB92946E5
:107710000F4825F0F2FF0F490D4825F0DEFF0E4B14
:107720005869FEF7F9FE0B4602210246009108480F
:1077300026F03EF9002002B070BD0849044826F04A
:1077400007F8F7E70220F6E79C3103080C17002042
:107750001C63002025F002087C0E0020282403086A
:10776000F7B5576E0E4637B1012F24D11649106870
:10777000FEF706FDF8B9154B9869FEF7BBFE044607
:107780000D463FB93146124825F0B7FF1149104860
:1077900025F0A3FF0AA3D3E9002320462946FFF7DB
:1077A0003DF80B46062102460091094826F000F9F3
:1077B000002003B0F0BD0220FBE700BFAFF3008064
:1077C0000000000080842E419C310308E80E002058
:1077D0001C63002025F00208F7B5576E0E4637B13E
:1077E000012F24D116491068FEF7CAFCF8B9154BD1
:1077F000D869FEF77FFE04460D463FB93146124870
:1078000025F07BFF1149104825F067FF0AA3D3E953
:10781000002320462946FFF701F80B4606210246C1
:107820000091094826F0C4F8002003B0F0BD022002
:10783000FBE700BFAFF300800000000080842E4112
:107840009C310308E80E00201C63002025F002088C
:1078500073B5556E0C4635B1012D23D11949106809
:10786000FEF78EFCF0B9184B93F82420E2B11E6AA3
:107870003DB92146154825F040FF1549134825F02C
:107880002CFF3046FEF736FE124B0022FEF7C6FFF5
:107890000B460321024600910C4826F089F800208F
:1078A00002B070BD0220FBE73DB92146074825F034
:1078B00024FF0749054825F010FF0749034825F034
:1078C00047FFECE79C310308E80E00201C63002012
:1078D00025F0020800408F4028240308536E10B59D
:1078E000ABB1012B11D1146818492046FEF748FCB2
:1078F000A0B12046FEF74EFC2246204482421AD018
:1079000012F8013B303B092BF8D9022010BD10487A
:1079100025F0F3FE0F490E4825F0DFFE0E4B0F4A0F
:1079200019780F4B0A48002914BF1146194625F053
:107930000FFF0020EAE70A220021204603F0C0FAE8
:10794000054BC0B201281870F3D9DEE79C3103085B
:107950001C63002025F00208141300200DF5020816
:10796000D1F50208536E10B5ABB1012B11D11468DB
:1079700018492046FEF704FCA0B12046FEF70AFC99
:107980002246204482421AD012F8013B303B092B98
:10799000F8D9022010BD104825F0AFFE0F490E485F
:1079A00025F09BFE0E4B0F4A19780F4B0A48002911
:1079B00014BF1146194625F0CBFE0020EAE70A2243
:1079C0000021204603F07CFA054BC0B20128187054
:1079D000F3D9DEE79C3103081C63002025F0020880
:1079E000BA0E00200DF50208D1F50208536E10B54D
:1079F000ABB1012B11D114681E492046FEF7C0FB24
:107A0000A0B12046FEF7C6FB2246204482421AD08F
:107A100012F8013B303B092BF8D9022010BD164863
:107A200025F06BFE1549144825F057FE144B154AF6
:107A30001978154B1048002914BF1146194625F036
:107A400087FE0020EAE70A220021204603F038FAE8
:107A50000B4BC0B20128187008D10C490C4825F016
:107A600077FE0C4B1B78012BEBD9D6E70028F8D119
:107A70000949F3E79C3103081C63002025F0020844
:107A8000700E00200DF50208D1F50208ECEF020897
:107A900044630020BA0E002005F00208536E70B552
:107AA000B3B1012B01D0022070BD14682B492046D0
:107AB000FEF766FB98B12046FEF76CFB2246204499
:107AC000824225D012F8013B303B092BF8D9EAE776
:107AD000234825F012FE2349214825F0FEFD224BC4
:107AE000224A1978224B1E48002914BF1146194614
:107AF00025F0F3FD1F491A4825F0EFFD012026F07F
:107B000063F80A220146164825F080FE0020CBE7E4
:107B10000A220021204603F0D3F9134E307026F0DC
:107B20005AF8154B1860154B154801251D70154B5B
:107B300000241C70144B1C6001F096FF4FF416518A
:107B400012482B46062226F03DFA3178A942AAD8DF
:107B5000284626F034F82046A6E700BF9C310308EB
:107B60001C63002025F002081513002013F0020802
:107B7000AC21030818F00208740E0020A50E0020A6
:107B8000E80E0020A60E00203017002044630020DD
:107B900008B5536E43B1012B04D10A491068FEF7B2
:107BA000EFFA40B102200BE0074825F0A6FD074997
:107BB000054825F092FD0649034825F0C9FD00203F
:107BC00008BD00BF9C3103081C63002025F002089B
:107BD00027F0020808B5536E43B1012B04D10D49BB
:107BE0001068FEF7CDFA40B1022012E00A4825F0F5
:107BF00084FD0A49084825F070FD094B094A1978A7
:107C0000094B0548002914BF1146194625F0A0FD6F
:107C1000002008BD9C3103081C63002025F00208E9
:107C2000A70E002067F002082824030800000000C7
:107C3000536E70B50E46144633B1012B28D1184946
:107C40001068FEF79DFA18BB0F2026F021FA154B9D
:107C5000154D80B21880FFF7B5F8FEF75DFC0EA356
:107C6000D3E90023FEF7B0FCFEF786FF636E2880A1
:107C70003BB931460D4825F040FD0D490B4825F034
:107C80002CFD298809480A2225F0C0FD002070BD7E
:107C90000220FCE7AFF300800000000000941140D8
:107CA0009C31030866170020641700201C63002025
:107CB00025F00208536E07B543B1012B04D11049DA
:107CC0001068FEF75DFA40B1022016E00D4825F07D
:107CD00014FD0D490B4825F000FD0C4826F0CCF8AA
:107CE0000B49FFF7C7F8FEF717FC0B4602210246C7
:107CF0000091044825F05CFE002003B05DF804FB11
:107D00009C3103081C63002025F00208D163002089
:107D100000007A4408B5536E43B1012B04D10C49DD
:107D20001068FEF72DFA40B102200FE0094825F057
:107D3000E4FC0949074825F0D0FC0849054825F02E
:107D400007FD0749074801F063FE002008BD00BF9A
:107D50009C3103081C63002025F002083CF0020857
:107D600058F002084463002038B5536E0D4614469F
:107D700033B1012B2AD116491068FEF701FA28BB4E
:107D8000144A1549154801F023FD636E80B13BB9D3
:107D90002946134825F0B1FC1249114825F09DFCF5
:107DA0000D4B0F4819680A2225F050FD002038BD00
:107DB0003BB929460A4825F0A0FC0A49084825F0A5
:107DC0008CFC0949064825F0C3FCEFE70220EEE7EA
:107DD0009C310308A00E002060170020B80E002080
:107DE0001C63002025F002082824030838B5536ED0
:107DF0000D46144633B1012B2AD116491068FEF7FF
:107E0000BFF928BB144A1549154801F0E1FC636E1F
:107E100080B13BB92946134825F06FFC124911483F
:107E200025F05BFC0C4B0F4819680A2225F00EFD6B
:107E3000002038BD3BB929460A4825F05EFC0A49B6
:107E4000084825F04AFC0949064825F081FCEFE77F
:107E50000220EEE79C310308A00E002060170020EE
:107E6000B80E00201C63002025F002082824030817
:107E7000536E37B50D4614463BB1012B3DD1204919
:107E80001068FEF77DF9002837D11E4A1E491F48A9
:107E900001F09EFC636E10B33BB929461C4825F0E7
:107EA0002CFC1C491A4825F018FC1B4C154B01945E
:107EB0001B680093194A144B19491B6812780978FA
:107EC000124801F0DDFA174B187002230093D4E931
:107ED00000230F4825F06CFD002003B030BD3BB9F6
:107EE00029460B4825F009FC0A49094825F0F5FB0D
:107EF0000D49074825F02CFCEEE70220EDE700BF16
:107F00009C310308A00E002060170020B80E00204E
:107F10001C63002025F00208C00E0020A40E0020E3
:107F2000710E00205C170020282403081FB5536E33
:107F300043B1012B04D118491068FEF721F940B173
:107F400002201AE0154825F0D8FB1549134825F002
:107F5000C4FB144B1449DC7C01A825F0ABFD4E2C6E
:107F60000DD1124901A825F0C6FD01A90B4825F045
:107F7000F1FB01A825F058FD002004B010BD502CE5
:107F800001D10B49EEE74C2C01D10A49EAE7412C1B
:107F90000CBF09490949E5E79C3103081C6300202F
:107FA00025F00208E80E00202B05030869F00208FE
:107FB00091F0020895F002089DF00208A5F0020871
:107FC00008B5536E43B1012B04D10B491068FEF77D
:107FD000D7F840B102200EE0084825F08EFB084992
:107FE000064825F07AFB074B044893F838100A221C
:107FF00025F022FC002008BD9C3103081C630020F2
:1080000025F00208E80E0020F0B52A4D87B004469E
:108010000F46EC4605F1180E28686968664603C6E7
:1080200008357545B446F7D16FF4F666A519002DED
:10803000B8BFA4F2AE756FF06301A4F26D7696FB43
:10804000F1F606EBA5066FF4C86540F26D106519F0
:108050004FF4C87195FBF1F52E44A4F2B27500FB04
:10806000056506A800EB4700022F30F91A0C0544FD
:108070002A4402F1FF350EDDA0070CD1642694FBE3
:10808000F6F006FB104090B994FBF1F001FB1044B0
:10809000002C08BF1546182000FB05350C983C2322
:1080A00003FB05050D9803FB050007B0F0BD154661
:1080B000F1E700BFB0EE020873B5566E0D4636B15B
:1080C000012E26D114491068FEF75AF808BB134850
:1080D00090F83630019390F83530009390F83430B2
:1080E00090F8332090F83210008EFFF78DFF044691
:1080F0003EB929460A4825F000FB0A49084825F000
:10810000ECFA07480A22214625F0AAFB002002B01B
:1081100070BD0220FBE700BF9C310308E80E002081
:108120001C63002025F002082DE9F743584C5949FB
:10813000594825F0D2FAE17C002900F09F8056488A
:1081400025F0EAFA5549544825F0C7FA0A2294F86E
:108150003810514825F06EFB51494F4825F0BDFAC3
:10816000504B4D4819680A224FF47A7391FBF3F192
:1081700025F04CFBA069FEF7BDF98046E069894611
:10818000FEF7B8F906460F464348474925F0A5FAD9
:108190003DA3D3E9002340464946FEF73FFB0625B1
:1081A00002460B463C48009525F000FC3F493A4802
:1081B00025F093FA34A3D3E9002330463946FEF77D
:1081C0002DFB00950B460246334825F0EFFB37495F
:1081D000314825F082FA94F824306BB1206AFEF71A
:1081E00089F9334B0022FEF719FB0B4603210246A7
:1081F0000091294825F0DAFB274825F099FA2D4906
:10820000254825F06AFAA06AFEF774F9284B002287
:10821000FEF704FB032502460B4600951E4825F099
:10822000C5FB25491C4825F058FAE06AFEF762F9BB
:108230001F4B0022FEF7F2FA009502460B46164845
:1082400025F0B4FB94F83630019394F83530009360
:1082500094F8343094F8332094F83210208EFFF7DD
:10826000D3FE164904460C4825F037FA0A480A227C
:10827000214603B0BDE8F04325F0F2BA10490648A4
:1082800025F02BFA5EE700BF0000000080842E413D
:10829000E80E0020B2F002081C630020C5F00208BE
:1082A000D5F0020830170020E5F00208F4F00208CB
:1082B00000408F40F7F00208FFF0020809F10208C1
:1082C000C0F0020870B50F4C0F4D104E21780A22F5
:1082D000284625F0AFFA3146284625F0FEF90A2255
:1082E0002178284625F0A6FA3146284625F0F5F9EA
:1082F00021780A22284625F09FFA2378013323703B
:1083000070BD00BFA60E00201C63002017F10208FC
:1083100008B5074800F0ADFF014630B90448032313
:10832000022200F0D0FF012008BD0020FCE700BFC2
:10833000C80E002013B50B480DF1070101F014FA27
:10834000044658B108490748097800231A4601F045
:10835000C1F904480322012101F0D2F9204602B0FC
:1083600010BD00BFB80E0020710E002007B50548F3
:108370000DF1070101F0F8F908B19DF8070003B00D
:108380005DF804FBB80E002038B5536E0D46144658
:1083900033B1012B2AD116491068FDF7F1FE28BB35
:1083A000FFF7C8FF134B626E18701C463AB9294696
:1083B000114825F0A2F911490F4825F08EF9104A0D
:1083C000104B21780C48002914BF1146194625F09E
:1083D000BFF90D49084825F080F9FFF7C7FF1022C3
:1083E0000146054825F028FA002038BD0220FCE7A8
:1083F0009C310308BB0E00201C63002025F00208FE
:1084000067F00208282403082FF1020801490248F6
:1084100000F0E4BCAC6200201017002037B5002348
:108420009C4806224FF4E13125F0CCFD01230622C1
:1084300099484FF4165125F0C5FD0121002025F083
:10844000A7FB0121084625F0A3FB0021092025F008
:108450009FFB0021732025F09BFB0524002025F0C5
:10846000B3FBB0FA80F14909002025F0A8FB3220C7
:1084700025F088F8013CF1D12146204625F09FFBEC
:10848000FFF7C4FF854B834C1870FFF741FF844B07
:108490001870844800F0E8FF824801F017F9207C4A
:1084A00024F07CFB18B90A2025F06CF8F7E77E4928
:1084B000784825F04DF97D4B00937D4B7D4A7E48F1
:1084C00002241946019425F0DFFC7C4B00937C4B81
:1084D0007C4A01941946784825F0D6FC7A4B0093E3
:1084E0007A4B7B4A01941946734825F0CDFC794BB1
:1084F0000093794B794A019419466F4825F0C4FCE2
:10850000774B0093774B784A019419466A4825F0D7
:10851000BBFC764B0093764B764A0194194666482D
:1085200025F0B2FC744B0093744B754A01941946C4
:10853000614825F0A9FC734B0093734B734A019477
:1085400019465D4825F0A0FC714B0093714B724AAF
:1085500001941946584825F097FC704B0093704BD6
:10856000704A01941946544825F08EFC6E4B0093D6
:108570006E4B6F4A019419464F4825F085FC6D4BB0
:1085800000936D4B6A4A019419464B4825F07CFCD8
:108590006A4B00936A4B6B4A01941946464825F092
:1085A00073FC694B0093694B694A4348012519469E
:1085B000019525F069FC674B0093674B674A01946E
:1085C00019463D4825F060FC654B0093654B664AB3
:1085D00001941946384825F057FC644B0093644BCE
:1085E000644A01941946344825F04EFC624B0093CE
:1085F000624B634A019419462F4825F045FC614BB4
:108600000093614B614A019419462B4825F03CFCCC
:108610005F4B00935F4A4D4B5F490195264825F01B
:1086200033FC5E4B00935E4B5E4A0195194622482F
:1086300025F02AFC5C4B00935C4B5D4A0195194682
:108640001D4825F021FC5B4B00935B4B5B4A01947A
:108650001946194825F018FC594B0093594B5A4AB2
:1086600001941946144825F00FFC584B0093584BC1
:10867000584A01941946104825F006FC564B0093C1
:10868000564B574A019419460B4825F0FDFB03B0A1
:1086900030BD00BF1C630020446300200C17002085
:1086A000A70E0020B80E002046F10208917B0008BA
:1086B0003A0903088FF10208D2630020E587000819
:1086C000A7F10208ABF1020881760008E2F1020886
:1086D000E7F10208F17600081BF202081FF2020817
:1086E000D57B00084DF2020853F20208F574000829
:1086F0008AF202088DF2020879750008C6F20208B3
:10870000C9F20208FD75000802F3020805F3020829
:10871000898300083EF3020842F30208697D0008DD
:108720007DF3020884F30208ED7D0008B6F3020829
:10873000BDF30208717E0008EFF30208E988000823
:1087400091F00208F3F302089D7A000829F4020868
:108750002FF40208C17F00086DF4020874F40208C7
:10876000B9800008A0F40208A8F4020861770008A4
:10877000C8F40208CFF40208D977000809F5020806
:1087800010F50208517800084CF5020853F502086C
:10879000DD7800088DF50208D5F502086579000836
:1087A000DDF50208E4F50208ED79000832F602086A
:1087B00038F60208157D000889F6020892F60208CC
:1087C0002D7F0008CAF60208D1F60208317C0008A5
:1087D000B8080308F6F60208B57C00082FF702086F
:1087E00033F7020808B5536E43B1012B04D10E498B
:1087F0001068FDF7C5FC40B1022013E00B4824F0DF
:108800007CFF0B49094824F068FFFFF7FFFD094B87
:1088100009491870094B002808BF1946034824F07D
:1088200097FF002008BD00BF9C3103081C63002097
:1088300025F002080C17002067F00208282403081E
:10884000044B1B7823B1044A0449054800F02ABAB6
:10885000704700BF0C170020381700207C0E002046
:108860001017002038B5144D14491548154CE8224E
:1088700001F012F9284600F0B7F92846124D1349C5
:10888000224601F0E9FD12491E22284600F0F2FAC4
:10889000224610492846104D01F0DEFD0F4800F039
:1088A000E1FD0F49284625F005F9224628460D49E5
:1088B000BDE8384001F0D0BD101700202C0F00207B
:1088C000E80E002000000020C80E0020F58B0008F4
:1088D000AC620020658E000800170020B80E002052
:1088E0002B05030829DA020838B5536E0D461446E5
:1088F00033B1012B23D113491068FDF741FCF0B9C6
:10890000114825F044FB114B626E003818BF01205E
:1089100018701C463AB929460D4824F0EEFE0D4960
:108920000B4824F0DAFE21780B4A0C4B084800294A
:1089300014BF1146194624F00BFF002038BD022059
:10894000FCE700BF9C31030844630020640E002054
:108950001C63002025F0020867F0020828240308A1
:10896000044B1B782BB1044B044A0549054800F021
:1089700081BB7047A70E0020B00E0020AC0E002077
:10898000A80E0020C80E00202DE9F04385B025F088
:1089900022F94C4A4C4C13682168C01A884214D9F9
:1089A0000B4400200121136025F009F9022024F076
:1089B000E9FD0021084625F002F9444B93F83830D0
:1089C000002B71D14FF47A63236025F004F9404AFB
:1089D0001368C01AB0F57A7F06D903F57A7313606D
:1089E000FFF72EFFFFF7BCFF3A4825F0D0FA00282A
:1089F00061D0364B1B7D5BB1374C237843B125F0FA
:108A0000EAF8364B1B68C01A354B186000232370F8
:108A1000344B1B78012B0FD125F0DDF8324B334A54
:108A20001860136841F28831C31A8B4204D9106070
:108A3000FFF77AFBFFF746FC2D4C26492D4D2E4EB5
:108A4000DFF8BC802D4FDFF88C900D2201A824F0B8
:108A5000D3FF01A9204625F03FF801A824F0E4FF48
:108A6000A26825490132204600232A6025F078F8C3
:108A700000242B68A3421EDD98F800306BB13178DA
:108A8000384624F049FE384625F084FA01228DF854
:108A9000040001A9484625F077FA16F8011B0B4897
:108AA00001F004F90134E4E7032B94BF4FF4FA63B7
:108AB0004FF47A7388E7052024F064FD05B0BDE823
:108AC000F08300BF34170020680E0020E80E00205D
:108AD0002C17002044630020A50E0020740E0020F7
:108AE00030170020BA0E00206C0E0020780E0020F7
:108AF00000170020B40E0020161300201C63002075
:108B00001413002070477047704710B5044604F0F6
:108B100071FD204610BD10B5044604F06BFD2046E3
:108B200010BD00000B4610B528220446002118464F
:108B300001F0D2FC0A490B2202F032F90022C27283
:108B40000121C160A16842620022C261054A01613F
:108B500082610C214FF080424161026210BD00BF72
:108B600068F702080000C8420B4610B528220446E8
:108B70000021184601F0B0FC09490B2202F010F95F
:108B80000022C2720121C160A1684262054AC2612D
:108B9000054A016182610D21044A4161026210BDF2
:108BA00070F70208000020C20000AA429A99993E7C
:108BB0000378DB43DBB2082213F0800F4FEA430354
:108BC00001D083F03103013ADBB2F5D1407858404F
:108BD000082310F0800F4FEA400001D080F03100F0
:108BE000013BC0B2F5D170470022C0E903224261C7
:108BF0000276704710B50446006910B103685B68DF
:108C00009847606910B103685B689847204610BDBB
:108C100070B50C460546164600212022201D01F0A5
:108C20005BFC242323606B8963600D23A3602B68A6
:108C30002661636170BD70B50C460546164600217D
:108C40002022201D01F048FC242323602B8963602F
:108C50000D23A3606B682661636170BD1FB500239F
:108C6000CDE9003349BAADF80C100123022203A963
:108C7000C06800F074FB05B05DF804FB08B543F272
:108C80001751FFF7EBFFBDE80840FA2024F08FBC36
:108C900008B548F25D01FFF7E1FFBDE8084001209B
:108CA00024F070BC2DE9F34104460E46904624F0B2
:108CB00092FF07462046FFF7E1FF237E33B146F2DD
:108CC0009C012046FFF7CAFF012005E047F6660138
:108CD0002046FFF7C3FF0D2024F054FCE068012379
:108CE0000622694600F088FB05460028ECD068465D
:108CF0009DF80210FFF75CFF81423DD10DF10300AA
:108D00009DF80510FFF754FF814235D1BDF80000F2
:108D100040BA83B241F2171058438013A0F58C502B
:108D20001438FEF753F81549FEF758F9BDF803302B
:108D300020605BBA9BB240F271205843000BFEF7F3
:108D400041F80E49FEF74AF94BF29801606020465F
:108D5000FFF784FFB8F1000F04D03A4641462046A1
:108D6000FFF756FF26B13A4631462046FFF763FF2C
:108D7000284602B0BDE8F0810025F9E70000C842AE
:108D800008B50022C068FFF78DFF012008BD08B5B7
:108D90000A46C0680021FFF785FF012008BD1FB506
:108DA00049BAADF80C100021CDE90031134603A9F2
:108DB0000222C06800F03FFB05B05DF804FB07B578
:108DC000032301AA4EF6C871FFF7E9FFBDF80400BE
:108DD00040BA80B203B05DF804FB000070B50446F1
:108DE000C0680E4608B104F005FC102004F004FC35
:108DF00032460546702100F086FAE56028460121DA
:108E000000F09EFA054610B90025284670BD2046A0
:108E1000FFF73EFF2046FFF731FF2046FFF7CFFF69
:108E200020F4F8600005000D40F607039842EBD1EE
:108E3000102004F0E1FB094B036040F2C133C0E9AC
:108E400002346061102004F0D7FB054B03604FF43F
:108E50004363C0E902342061D7E700BF9CF70208F2
:108E600080F70208704710B5044604F0C3FB2046A3
:108E700010BD000010B5064C0273064A8261C0E9BD
:108E800000414FF4807200218160828310BD00BFD9
:108E9000B8F7020800093D002DE9F041D0F808803C
:108EA00004460D4617461E46B8F1000F1BD0D0E908
:108EB0000612404625F003F8207C002124F07FFEB6
:108EC00045F08001A06825F03BF8A068324639469D
:108ED00025F032F8207C012124F071FEA06825F0F5
:108EE0001DF8012021E0017B406824F001FF60684B
:108EF000036829461B6898476068414624F004FFD0
:108F0000054680B9217B6068F2B224F0E8FE864213
:108F10000DD13E44B742E4D0606803685B6998476E
:108F200007F8010BF6E74FF0FF30BDE8F081284667
:108F3000FBE70000F7B51D4606230F461646194607
:108F40006A460446FFF7A8FF28B9474B3B603360E9
:108F50002B6003B0F0BD247D84BBBDF90000FDF79C
:108F6000C9FA02460B46FDF779F900224FF07C530F
:108F7000FDF72AFBFDF720FE3860BDF90200FDF782
:108F8000B9FA02460B46FDF769F900224FF07C530F
:108F9000FDF71AFBFDF710FE3060BDF90400FDF788
:108FA000A9FA02460B46FDF759F900224FF07C530F
:108FB000FDF70AFBFDF700FE286003E0012C03D05B
:108FC000022C2AD00120C4E7BDF90000FDF792FA77
:108FD000264B0022FDF7F8FA00224FF07C53FDF7F4
:108FE000F3FAFDF7E9FD3860BDF90200FDF782FAFA
:108FF0001E4B0022FDF7E8FA00224FF07C53FDF7EC
:10900000E3FAFDF7D9FD3060BDF90400FDF772FA0F
:10901000164B0022FDF7D8FAC7E7BDF90000FDF7AF
:1090200069FA134B0022FDF7CFFA00224FF07C5370
:10903000FDF7CAFAFDF7C0FD3860BDF90200FDF783
:1090400059FA0B4B0022FDF7BFFA00224FF07C5378
:10905000FDF7BAFAFDF7B0FD3060BDF90400FDF789
:1090600049FA034B0022D5E70000C07F0000104002
:1090700000002040F7B51D4606230F461646194648
:109080006A460446FFF708FF28B9474B3B60336048
:109090002B6003B0F0BD247D84BBBDF90000FDF75B
:1090A00029FA02460B46FDF7D9F800224FF07C530F
:1090B000FDF78AFAFDF780FD3860BDF90200FDF783
:1090C00019FA02460B46FDF7C9F800224FF07C530F
:1090D000FDF77AFAFDF770FD3060BDF90400FDF789
:1090E00009FA02460B46FDF7B9F800224FF07C530F
:1090F000FDF76AFAFDF760FD286003E0012C03D05C
:10910000022C2AD00120C4E7BDF90000FDF7F2F9D6
:10911000264B0022FDF758FA00224FF07C53FDF752
:1091200053FAFDF749FD3860BDF90200FDF7E2F999
:109130001E4B0022FDF748FA00224FF07C53FDF74A
:1091400043FAFDF739FD3060BDF90400FDF7D2F9AF
:10915000164B0022FDF738FAC7E7BDF90000FDF70E
:10916000C9F9134B0022FDF72FFA00224FF07C5370
:10917000FDF72AFAFDF720FD3860BDF90200FDF782
:10918000B9F90B4B0022FDF71FFA00224FF07C5378
:10919000FDF71AFAFDF710FD3060BDF90400FDF788
:1091A000A9F9034B0022D5E70000C07F0000104062
:1091B0000000204007B501230DF10702FFF76CFE08
:1091C00001280CBF9DF807004FF0FF3003B05DF899
:1091D00004FB70B5044680680E461546C0B1D4E95C
:1091E000061224F06CFE207C002124F0E8FC3146BD
:1091F000A06824F0A5FE2946A06824F0A1FE207CEA
:10920000012124F0DCFCA06824F088FE012070BD60
:10921000217B606824F06CFD6068036831461B6840
:1092200098476068036829461B6898476068012171
:1092300024F06AFDB0FA80F04009E8E7836810B5D1
:10924000044663B1184624F032FE207C002124F04D
:10925000B6FC207C0021BDE8104024F099BC182207
:109260001146FFF7B6FF60680121BDE8104024F009
:109270004BBD836810B50446ABB1007C012124F0DE
:1092800087FC207C012124F09AFCA06824F009FED0
:109290000F212046FFF78EFF152812D02046FFF73A
:1092A000CDFF002010BD017B406824F021FD6068E7
:1092B000012124F029FD0028F4D0606824F0D8FCB6
:1092C000E6E70120EEE738B5054602750C4609B918
:1092D000052B16D01A461B212846FFF77AFF2B7D57
:1092E000012B07D144F0880218212846FFF771FFAF
:1092F000012038BD022B14BF44F0800244F09002DC
:10930000F2E70846F5E7426000220272202201706F
:10931000C2607047037A10B504465BB1217860687B
:1093200024F0E6FC6068012124F0EEFCB0FA80F045
:10933000400910BD012100F003F80028EED1F8E744
:1093400038B5044640680D4624F092FC0120207296
:1093500025B12046BDE83840FFF7DCBF38BD2DE918
:10936000F843DDE908961F46C368154632449A4221
:109370000446884602D90020BDE8F8830178406899
:1093800024F0B6FC7EB9606803682A465B684146F3
:1093900098478542EFD16068394624F0B5FCB0FAB1
:1093A00080F04009E8E7B9F1000FECD0606803688D
:1093B00032465B6849469847B042DCD1E3E72DE985
:1093C000F041154604460F46D2B20178406824F0B9
:1093D0007DFC85420BD10026B54206F1010809D972
:1093E000606803685B699847B8554646F4E7002013
:1093F000BDE8F0810120FBE72DE9F84307468846E8
:10940000164699460025B54212D2FA68741B94425A
:1094100028BF1446331BAB4294BF4B460023224661
:1094200008EB05013846FFF7CAFF10B12544EAE70B
:109430000120BDE8F88373B51D460023CDE9003354
:109440009DF81C30069E0446FFF789FF40B10123BA
:1094500032462946204602B0BDE87040FFF7CCBF37
:1094600002B070BD7047000008B5292303700248A0
:1094700024F0FEFB012008BDAC62002000000000CB
:109480002DE9F04F184685B04FF6FF739842DDE99D
:109490000E6A0191934601D09E4207D1002200231B
:1094A000CAE90023002005B0BDE8F08FFDF712F8EF
:1094B000044630460D46FDF70DF822462B4606467B
:1094C0000F46FDF7ABF9804658468946FDF712F87E
:1094D00002460B4652A1D1E90001FDF79FF9024671
:1094E0000B46CDE9022322462B46FDF76DF83B469D
:1094F000324604460D46DDE90201FDF765F8019BA1
:1095000006460F467BB9604B002220462946FDF7F0
:109510005BF85D4B04460D46304639460022FDF7A8
:1095200053F806460F46594B002240464946FDF780
:10953000BDFA30B33CA3D3E900234046494602F0CC
:1095400049FF3BA3D3E9002306460F4620462946A0
:10955000FDF73AF838A3D3E9002380468946204630
:109560002946FDF731F832463B46FDF72DF8024615
:109570000B4640464946FCF76FFECAE90001012050
:1095800091E72FA3D3E9002340464946FDF78EFA21
:10959000A0B12DA3D3E9002320462946FDF714F8F6
:1095A0002BA3D3E9002304460D4630463946FDF788
:1095B0000BF802460B4620462946DCE726A3D3E9F2
:1095C000002340464946FDF771FA60B124A3D3E970
:1095D000002320462946FCF7F7FF23A3D3E9002305
:1095E00004460D46E1E722A3D3E90023404649465D
:1095F000FDF75CFA60B120A3D3E900232046294699
:10960000FCF7E2FF1EA3D3E9002304460D46CCE796
:1096100000220023CAE90023B1E700BFAFF30080B6
:109620000000000000207940666666666666F63FC8
:10963000C58F31772D219F3F5839B4C876BEAF3FD3
:1096400085EB51B81E85E33FC7BAB88D06F0963F4B
:109650005839B4C876BE9F3F9A9999999999E93F2C
:109660002D431CEBE2368A3F4BC8073D9B558F3F8D
:10967000CDCCCCCCCCCCF43FB2632310AFEB573F76
:10968000D2FBC6D79E59523F000030400000E03F59
:10969000F8B50D4D04460F4601782846164624F0CD
:1096A00027FB3946284624F0CBFA3146284624F0D9
:1096B000C7FA0121284624F027FBC0B26070B0FA37
:1096C00080F04009F8BD00BFAC6200200322802179
:1096D000FFF7DEBF10B414460A1F012A0ED907296E
:1096E00028BF00218900CAB20CB142F002020BB1BE
:1096F00042F0010210BC8021FFF7CABF0021F1E750
:10970000062988BF0021C900C9B2062A88BF0022E5
:109710000A438521FFF7BCBF70B504460E460178A9
:109720001048154624F0E4FA31460E4824F088FA31
:109730000C48012124F0E8FAC0B2607008B10020A2
:1097400070BD21780748012224F0CCFA054824F0A6
:1097500057FA01280446F2D1024824F05BFA287037
:109760002046EDE7AC6200200A468621FFF7D4BF11
:1097700070B504460E4601781448154624F0B8FA30
:109780003146124824F05CFA1048012124F0BCFA5A
:10979000C0B2607008B1002070BD21780B48022271
:1097A00024F0A0FA094824F02BFA0228F3D1074844
:1097B00024F030FA0446054824F02CFA03029BB248
:1097C000E0B2184328600120E6E700BFAC62002049
:1097D00038B515460A468A210446FFF7C9FF30B15D
:1097E0002A4620468821BDE83840FFF7C1BF38BD72
:1097F00040B10D2806D000F0DF00A0F10A03584266
:10980000584170470120704770B580B10446264624
:1098100014F8015B2846FFF7EBFF48B92C2DF6D171
:109820007078FFF7E5FF00280CBF2046002070BDD0
:109830000020FCE710B5034601440A2400208B42B7
:1098400005D013F8012B04FB00203038F7E710BDDA
:109850002DE9F0410C461746064696F80080404632
:1098600000F032FE3546024601360028F5D1B8F147
:109870002D0F11D135464FF0FF3600214FF00A0E63
:10988000284615F801CBACF13003092B0AD80EFBA2
:1098900001C3A3F13001F3E7B8F12B0F08BF354640
:1098A0000126EAE7254601234FF00A0E013DEDB2FD
:1098B000FF2D02D00EFB03F3F8E7BCF12E0F03FBE4
:1098C00001F31DD1451C4FF00A0C284615F8011B69
:1098D000A1F1300EBEF1090F00D84CB901254FF0AF
:1098E0000A0C013CE4B2FF2C08D00CFB05F5F8E7AC
:1098F0000CFB0212013C303AE4B2E6E705FB02330E
:109900005E4317B1FFF780FF38603046BDE8F08155
:10991000F8B503782C2B05460F46144605D192B1B5
:10992000FFF772FF20600020F8BDFFF783FF074EAE
:10993000224646430621E819FFF78AFF3C2490FBA4
:10994000F4F03044F0E71046EEE700BF40420F006D
:109950002DE9F8430C4690460546B0B100272E4647
:1099600015F8019BB9F12C0F12D04846FFF740FFC4
:1099700050B93CB1B84507F1010301DD04F8019B82
:109980001F46ECE73B46FBE71CB90020BDE8F88327
:1099900034B1B845C4BF0023237033782C2BF4D1E5
:1099A000701CF3E710B50378242B08BF0130024682
:1099B0000023104612F8014B1CB12A2C01D0634041
:1099C000F7E769B11A099F2B03F00F038CBF3732F9
:1099D0003032092BD2B28CBF373330330A704B7020
:1099E00010BD07B501A9FFF7DDFF03782A2B0DD1C4
:1099F00042789DF804309A4208D180789DF805306D
:109A0000C31A5842584103B05DF804FB0020FAE73E
:109A100037B50D46044601A92846FFF7C3FF0023CA
:109A2000294620468DF8063023F057FE2A2120468D
:109A300023F072FE01A9204623F05FFE0349204671
:109A400023F04BFE204603B030BD00BF29050308BC
:109A5000C0E90111027032B100220A700178436836
:109A60000B4403F8012C70470023094AC3740375A3
:109A700080F824300363074B4363C0E906224FF4A8
:109A80007F434FF00042C0E90A2202620387704719
:109A9000C0878B3B6363630038B50023C0E90F3395
:109AA0000373C0F80D30A0F81130FFF7D1FFFFF7B6
:109AB000DBFF38BD38B50B782C2B05460C4604D19E
:109AC0000846BDE83840FFF79FBE02212046FFF759
:109AD000B1FE022185F834006018FFF7ABFE0221C9
:109AE00085F83500201DFFF7A5FE022185F8360018
:109AF000E01DFFF79FFE85F8370004F10900E0E75D
:109B000038B50B782C2B05460C4604D10846BDE829
:109B10003840FFF779BE02212046FFF78BFE022175
:109B200085F833006018FFF785FE022185F83200C2
:109B3000201DFFF77FFE00F5FA602886A01DE6E7EE
:109B400013B5037BC37404460191FFF7B3FF019083
:109B500010B9002002B010BD01AA0221FFF7D8FE03
:109B6000019BA061002BF4D01A782C2A40D101333C
:109B70000193019801AA0321FFF7CAFE019BE0614E
:109B8000002BE6D01A782C2A38D1013301930198A2
:109B900010F8023B0190313B042B8CBF00230123C2
:109BA000237501AA0021FFF753FEFF28DABF20EA40
:109BB000E070C0B2FF2084F8380001980028C8D0B7
:109BC00001AA0121FFF744FEFF2828BFFF2084F8E7
:109BD000390001980028BCD001AA0321FFF738FE04
:109BE000019B2062002BB4D0012084F82400B1E74F
:109BF000532A04BF4042A0610233B9E7572A04BF89
:109C00004042E0610233C1E713B5037BC3740446ED
:109C10000191FFF74FFF019010B9002002B010BD75
:109C200010F8023B0190A3F14102534253412375C6
:109C300001AA0221FFF76CFE019BA061002BECD072
:109C40001A782C2A25D101330193019801AA032106
:109C5000FFF75EFE019BE061002BDED01A782C2A14
:109C60001DD101330193019801AA0321FFF7F0FDF3
:109C7000A06201980028D0D0032101AAFFF7E8FDD7
:109C80000199E0620029C8D02046FFF739FF012082
:109C9000C4E7532A04BF4042A0610233D4E7572AE5
:109CA00004BF4042E0610233DCE70000436870B566
:109CB00004460BB9002036E00378002BFAD00D29BA
:109CC00083684CD842F20145CD40ED4315F00105C3
:109CD00045D11D704068A0600378242B1CD1FFF78C
:109CE00080FEC8B160684378472B04F10D061BD194
:109CF00083782373062231460330FFF729FE054699
:109D000010B31C493046FCF73BFA90B9294620466F
:109D1000BDE87040FFF714BFE36BDBB963681878E8
:109D2000003818BF012070BD25730622314601306E
:109D3000E3E711493046FCF723FA28B929462046C3
:109D4000BDE87040FFF760BF236C002BE6D02046D3
:109D50009847E3E762681278002ADFD0F7E71970C6
:109D60002278A368511E62680A4493423CBF0133C3
:109D7000A3609FE7C8F70208CCF7020804F0DCBA3A
:109D800004F0DFBA7047000070B5002386B0CDE95B
:109D900004334FF0B0420F4DD16C41F00201D16459
:109DA000D26C039302F002024FF48056009201A994
:109DB0002846CDE90163009A0FF0ACF931462846F8
:109DC0000FF0C8FA3146044628460FF04FFA2046F5
:109DD00006B070BD000400480D2070474FF0B0433E
:109DE00082B0DA6C0243DA64DB6C18400190019BAC
:109DF00002B070472DE9F04186B01422002101A87D
:109E000000F06AFB0220FFF7E9FF144D144F042015
:109E1000FFF7E4FF4FF4807601230024CDE90163CE
:109E200001A903232846CDE903434FF400580FF05E
:109E300071F901A93846CDF804800FF06BF922467C
:109E4000414638460FF08CFA2846224631460FF03C
:109E500087FA204606B0BDE8F08100BF0004004844
:109E600000080048032810B50ED8012810D868B99A
:109E700002460B484FF480710FF072FA0022094835
:109E80004FF400510FF06CFA002010BD0122F0E7F2
:109E9000002203484FF480710FF062FA0122EEE7CE
:109EA0000004004800080048022070470020704766
:109EB0000120704710B59AB04822002108A800F090
:109EC0000BFB1822002102A800F006FB10F004F999
:109ED0004FF0B0420024D2F8903023F01803C2F8BB
:109EE0009030D2F8003423F4C06343F40073C2F816
:109EF0000034D2F80034139403F4C0634FF480723A
:109F00000193019B0C922E2302220893119281232C
:109F100040220B930D920123B02208A8CDE90E3404
:109F20001093129210F02AFA08B104F02FFC4F237C
:109F3000022102A8CDE90234CDE90444CDE906446A
:109F400010F0BCFC08B104F021FC1AB010BD0000F8
:109F500013B50378082B11D8DFE803F012828710BD
:109F60008E8E05109200047920460DF055F820469B
:109F70000CF0FCFF002120460DF056F802B010BD99
:109F800000200DF049F8012839D101200DF044F8E6
:109F9000012804D0012023F007F800283DDC02202E
:109FA0000DF03AF80128E9D0022022F0FDFF002848
:109FB000E4DD012201A9022022F0BEFE02200DF004
:109FC0002BF80028F0D1022022F0CAFF00283FD150
:109FD0009DF8041002200CF035FFE5E7012201A9ED
:109FE000002022F0A9FE00200DF016F8044630B93A
:109FF00022F0B6FF48B99DF804100CF023FF0020B2
:10A0000022F0D2FF0028E9DCBFE70128F7D19DF854
:10A010000410204622F0FEFEF1E7012201A91046BD
:10A0200022F08AFE01200CF0F7FF0028B2D10120B7
:10A0300022F096FF28B99DF8041001200CF002FFD1
:10A04000A8E70128A6D19DF8041022F0E3FEA1E7BD
:10A050000128A9D19DF80410022022F0DBFEA3E71D
:10A0600015F0F0FF06F0ACFC88E7074B1B68002BEF
:10A0700084D04068984781E7406823F05BF97DE72A
:10A08000406823F037FA79E7006A002030B5284BA2
:10A09000284A9A6085B00EF053F9FFF70BFF4FF096
:10A0A000B0430B209A6C42F004029A649A6C02F05E
:10A0B00004020392039A9A6C42F001029A649B6C28
:10A0C000002203F0010311460293029B0EF0A0FD53
:10A0D0000B200EF0CFFD23F021F90EF0BDF80DF0AE
:10A0E00055F8002401460546234603220120CDE908
:10A0F000004422F061FD2346032229460220CDE9D7
:10A10000004422F059FD05F0F5F906F081FCE5B2B6
:10A1100028460CF081FF10B928460CF027FF0134C7
:10A12000032CF4D105B0BDE8304023F005B900BFE1
:10A1300000ED00E00060000823F00CB9F7B5FFF770
:10A14000A5FF4FF0B0432E4EDA6C2E4C42F00202C7
:10A15000DA64DB6C03F002030193019B08F02AFE32
:10A16000294B341B1427474300251C44BD4223D3ED
:10A1700003F05CFAFFF708FE98B3244804F02BFFC5
:10A18000234B24481A68244B196804F024FF234801
:10A1900022F096FD05F00FFB012824D0022824D0E0
:10A1A00010B91F4822F08CFD1E4C23F0D3F8237801
:10A1B000EBB903F03DFAF8E76A460421601922F092
:10A1C00069FF69463246042312F801CB11F8010BEE
:10A1D000844518BF02F8010C013BF5D10435043663
:10A1E000C4E71148CAE71148DCE71148DAE70CF088
:10A1F00059FF0028D9D0002023F03AF9D5E700BF55
:10A200009C0300200000002070330308D0F70208F0
:10A2100070000020E6F7020888000020F6F7020828
:10A220000AF8020868170020DBF7020816F802088F
:10A2300021F80208054808B50823036011F03EFA2A
:10A2400018B1BDE8084004F0A1BA08BD646400205C
:10A250004FF0B04307B55A6E42F001025A665B6E8A
:10A26000002203F00103019311463220019B0EF0FE
:10A27000CFFC322003B05DF804EB0EF0FBBC000015
:10A28000024B9868024BC04318607047002800409A
:10A290006C170020014B1868704700BF6C17002036
:10A2A000034B044A9B681068DB43181A704700BFD1
:10A2B000002800406C170020034B187810B1034BA6
:10A2C0009868C043704700BF69170020002800400D
:10A2D0000320704708B501464FF47A7200238002CC
:10A2E000890DFCF78DFF08BD4FF47A72A0FB0223A5
:10A2F000900A40EA8350704710B5074B074C012283
:10A30000DA654FF48071204610F0D6FB4FF0FF3332
:10A310002363002010BD00BF00280040E46400203B
:10A3200002460021014810F0DCBD00BFE4640020BB
:10A3300002460121014810F0D4BD00BFE4640020B2
:10A3400010B58CB02C220021044601A800F0C4F8FE
:10A35000FFF7D2FF0C4B18680023044408930693C0
:10A360004FF00053E4430793084802944FF480737E
:10A37000012201A90B9310F0B5FC08B104F006FA14
:10A3800000200CB010BD00BF6C170020E46400205A
:10A390000C4B70B59C68064602210B4810F0A8FDD6
:10A3A000E44300221219C2F309044FF47A71A4FBAA
:10A3B000014540F10003A40A900A348040EA83502A
:10A3C00070BD00BF00280040E46400200148002167
:10A3D00010F08EBDE46400200148012110F088BD1A
:10A3E000E4640020F8B5114E3578E5B9104C2A46E2
:10A3F00029464FF0FF372846276303F061FEFFF739
:10A400007BFF4FF48071204610F056FB20462763F7
:10A4100010F012FD2A460221204610F062FDFFF7DF
:10A420002FFF012333700020F8BD00BF6917002003
:10A43000E464002014F0C6BB10B5064C022120468F
:10A4400010F056FD0221421C2046BDE8104010F0DD
:10A4500048BD00BFE46400200B460146184600F0EA
:10A4600001B8000010B504460448134620B10A465E
:10A4700002202146AFF3008010BD00BF00000000A5
:10A4800070B50D4D0D4C641BA4100026A64209D1D9
:10A490000B4D0C4C24F0FEFC641BA4100026A642BD
:10A4A00005D170BD55F8043B98470136EEE755F8E5
:10A4B000043B98470136F2E7503303085033030852
:10A4C0005033030868330308024B0344587800F004
:10A4D0000800704793F9020802440346934200D1F2
:10A4E000704703F8011BF9E72DE9F04788B0002B0E
:10A4F0001F461446B8BF03F10043129A109DDDF8C1
:10A500004CA0B6BF1F4600232D231370149B23F0CD
:10A510002008B8F1460F05D0B8F1450F00D101353C
:10A52000022300E0032307AA049206AACDE902A2AF
:10A53000CDE9003522463B4600F05AFDB8F1470F01
:10A54000064602D1119BDB0722D5B8F1460F06EB78
:10A55000050910D13378302B0AD100220023204680
:10A560003946FCF799FA18B9C5F10105CAF8005047
:10A57000DAF8003099440022002320463946FCF7DF
:10A580008BFA08B1CDF81C903022079B4B4507D3BE
:10A59000079B159A9B1B3046136008B0BDE8F087F7
:10A5A000591C07911A70F0E7F7B503460029B8BFA8
:10A5B000494203F8022BB4BF2D222B2209294270F5
:10A5C0002ADD0DF10704A4460A27A6460A4691FB98
:10A5D000F7F607FB16153035632A04F1FF340EF841
:10A5E000015C3146F1DC3031AEF1020504F8011CAA
:10A5F000441C294661450AD30DF10902A2EB0E0263
:10A60000654588BF00221344181A03B0F0BD11F845
:10A61000012B04F8012FEDE7302330318370C17036
:10A62000031DF1E72DE9F04F91B00C46DDF868808D
:10A6300016461F46054601F0ADFA03680993184611
:10A64000FBF7A8FD00230E93D8F800300A900733DB
:10A6500023F0070303F1080294F81890D4F800B02F
:10A66000C8F80020D3E90023C4E91223D4E9128AF0
:10A670002AF000430B930B999C4B4FF0FF3240465E
:10A68000FCF73CFA70BB994B0B994FF0FF324046F8
:10A69000FCF716FA30BB0022002340465146FCF777
:10A6A00005FA10B12D2384F84330914B9148B9F14C
:10A6B000470F94BF98468046032323612BF0040381
:10A6C00023604FF0000A009733460FAA2146284620
:10A6D00000F0D2F9013040F08F804FF0FF3011B020
:10A6E000BDE8F08F4246534640465146FCF706FA15
:10A6F00040B1BAF1000FBCBF2D2384F843307E482F
:10A700007E4BD4E763685A1C09F0DF0142D106236F
:10A710006360002206920EAACDE904920DAA4BF4C2
:10A72000806303920DF13302CDE901322360636847
:10A7300000934246534628460B91FFF7D5FE0B99EE
:10A74000472980460D9908D1C81C02DB63689942ED
:10A7500040DDA9F102095FFA89F9B9F1650F1FD847
:10A7600001394A4604F150000D91FFF71DFF0E9A82
:10A770001318012A8246236102DC2268D20701D520
:10A78000013323619DF83330002B9CD02D2384F8B6
:10A79000433098E74729BCD1002BBAD10123B7E752
:10A7A000B9F1660F18D1002963680BDD216113B977
:10A7B0002268D00702D501330B442361A1654FF015
:10A7C000000ADFE713B92268D20701D50233F4E7A4
:10A7D0000123F2E74FF067090E9B994205DB2368DE
:10A7E0002161D807EAD54B1CE7E70029D4BFC1F1A6
:10A7F000020201221344E0E723685A0507D42369C3
:10A80000424631462846B84701302BD165E7B9F1B9
:10A81000650F40F2DC80D4E9120100220023FCF72E
:10A820003BF9002833D0364A012331462846B84741
:10A8300001303FF452AFDDE90D239A4202DB236879
:10A84000D8070FD5DDE9092331462846B84701303E
:10A850003FF443AF4FF0000804F11A090E9B013B8F
:10A86000434509DC23689B0700F10181E0680F9BE9
:10A870009842B8BF184632E701234A463146284677
:10A88000B84701303FF429AF08F10108E6E70D9B16
:10A89000002B37DC1A4A012331462846B8470130DD
:10A8A0003FF41BAFDDE90D23134302D12368D90721
:10A8B000D8D5DDE9092331462846B84701303FF4B1
:10A8C0000CAF4FF0000904F11A0A0D9B5B424B4597
:10A8D00001DC0E9B94E70123524631462846B847D7
:10A8E00001303FF4FAAE09F10109EEE7FFFFEF7F17
:10A8F00061F9020865F902086DF9020869F90208B0
:10A90000282403080E9AA36D9A42A8BF1A46002A6B
:10A91000914637DC4FF0000B29EAE97904F11A027D
:10A92000D4F858A0AAEB09035B4533DCDDE90D231D
:10A930009A423BDB2368DA0738D40E9A0D99A2EBD2
:10A940000A03A2EB01099945A8BF9946B9F1000F86
:10A9500034DC4FF0000829EAE97904F11A0ADDE94C
:10A960000D239B1AA3EB090343457FF77BAF01231C
:10A97000524631462846B84701303FF4AEAE08F1A2
:10A980000108ECE71346314642462846B8470130F5
:10A99000C0D1A2E60123314628460B92B8470130C8
:10A9A0003FF49BAE0B9A0BF1010BB9E7DDE90923EC
:10A9B00031462846B8470130BFD18EE64B4608EBFA
:10A9C0000A0231462846B8470130C2D185E60E9AC0
:10A9D000012A01DCDB0737D50123424631462846F0
:10A9E000B84701303FF479AEDDE909233146284606
:10A9F000B84701303FF471AED4E9120100220023C0
:10AA0000FCF74AF8D8B90E9B08F10102013B314628
:10AA10002846B84701300ED15FE601234A46314649
:10AA20002846B84701303FF458AE08F101080E9BA4
:10AA3000013B4345F1DC534604F15002E1E64FF09F
:10AA4000000804F11A09F2E701234246DFE7012377
:10AA50004A4631462846B84701303FF43EAE08F139
:10AA60000108E3680F995B1A4345F0DCFEE64FF0FE
:10AA7000000804F11909F4E72DE9F0471646994654
:10AA80008A680B69DDF820809342B8BF13463360B3
:10AA900091F8432007460C460AB10133336023681E
:10AAA000990642BF336802333360256815F0060506
:10AAB00006D104F1190AE36832689B1AAB4226DC1E
:10AAC00094F84320131E226818BF012392062BD44A
:10AAD00004F1430249463846C04701301ED023687E
:10AAE000E568326803F00603042B08BFAD1AA368BB
:10AAF00022690CBF25EAE57500259342C4BF9B1A65
:10AB0000ED1800261A34B5421AD1002008E00123BE
:10AB1000524649463846C047013003D14FF0FF3016
:10AB2000BDE8F0870135C6E7E1185A1C302081F8EE
:10AB30004300224494F8451082F843100233C7E7DB
:10AB40000123224649463846C0470130E6D0013647
:10AB5000D9E700002DE9FF470C469146277E0C9966
:10AB6000782F80469A4604F1430207D8622F0AD80C
:10AB7000002F00F0D880582F00F0A38004F1420687
:10AB800084F842703AE0A7F16303152BF6D801A0D0
:10AB900050F823F0EDAB000801AC00087DAB0008D5
:10ABA0007DAB00087DAB00087DAB000801AC000860
:10ABB0007DAB00087DAB00087DAB00087DAB0008D5
:10ABC0000DAD000831AC0008EFAC00087DAB00080B
:10ABD0007DAB00082FAD00087DAB000831AC00084C
:10ABE0007DAB00087DAB0008F7AC00080B681A1DB0
:10ABF0001B680A6004F1420684F842300123A3E096
:10AC0000256808682E0600F104030AD505680B6064
:10AC1000002D03DA2D236D4284F843305E480A2369
:10AC200019E015F0400F05680B6018BF2DB2EFE773
:10AC30000B682568181D0860280601D51D6802E00C
:10AC40006906FBD51D8854486F2F0CBF08230A23C3
:10AC5000002184F843106668A660002EA2BF216818
:10AC600021F0040121600DB9002E4DD01646B5FB30
:10AC7000F3F103FB1157C75D06F8017D2F46BB4278
:10AC80000D46F4D9082B0BD12368DF0708D52369BB
:10AC900061689942DEBF302306F8013C06F1FF36B9
:10ACA000921B2261CDF800A04B4603AA21464046E4
:10ACB000FFF7E2FE01304CD14FF0FF3004B0BDE8A9
:10ACC000F087354884F8457023680E681F0656F8EB
:10ACD000045B0E6014D5D90744BF43F02003236002
:10ACE0001DB9236823F0200323601023B0E72368F5
:10ACF00043F0200323607823284884F84530E3E7B5
:10AD00005E0648BFADB2E6E71646BBE70B682668AD
:10AD100060691D1D0D6035061B6801D5186002E0D5
:10AD20007106FBD51880002323611646BAE70B682D
:10AD30001A1D0A601E68626800213046FBF738FA67
:10AD400008B1801B606063682361002384F843308E
:10AD5000A8E72369324649464046D0470130ABD088
:10AD600023689B0713D4E068039B9842B8BF18463A
:10AD7000A4E70123324649464046D04701309BD0E4
:10AD80000135E36803995B1AAB42F2DCEBE700257F
:10AD900004F11906F5E700BF71F9020882F902080B
:10ADA00010B50139034632B111F8014F03F8014BD8
:10ADB000013A002CF7D11A440021934200D110BD72
:10ADC00003F8011BF9E700002DE9F0433B4E8646EE
:10ADD0008C4660461CF8014BA55D15F00805F8D1BE
:10ADE0002D2C34D19CF800404FF0010800F1020CEA
:10ADF000002B5ED0102B0CD1302C0AD19CF8000017
:10AE000000F0DF0058284FD19CF8014010230CF1CE
:10AE1000020C4FF0FF370025B7FBF3F703FB07F9F0
:10AE20006FEA09092846A4F13006092E18D83446DD
:10AE3000A34224DD002D1FDB87421DD301D1A14594
:10AE40001ADB00FB034001251CF8014BEBE72B2C20
:10AE500008BF9CF80040A84608BF00F1020CC7E7F5
:10AE6000A4F14106192E01D8373CE1E7A4F16106AF
:10AE7000192E04D8573CDBE74FF0FF35E4E7002DEF
:10AE800007DA2223CEF800304FF0FF3042B9BDE898
:10AE9000F083B8F1000F00D04042002AF7D00DB186
:10AEA0000CF1FF311160F2E73024002BB1D10823FF
:10AEB000AFE7302CA2D00A23ABE700BF94F9020819
:10AEC00013460A46014602480068FFF77DBF00BFEF
:10AED0008C0000202DE9F74F03690C69A342074657
:10AEE000C0F28180013C01F1140800F1140505EB6A
:10AEF0008403019358F8243055F8242001339A42F2
:10AF00004FEA840B08EB8409B2FBF3F631D34FF020
:10AF1000000E4046AC46F24650F8042B93B206FBB6
:10AF200003E34FEA134E9BB2AAEB0303120CDCF8C7
:10AF300000A006FB02E213FA8AF34FEA124E1FFA50
:10AF400082FADCF80020CAEB124202EB23429BB2E9
:10AF500043EA024381454CF8043B4FEA224ADBD2E4
:10AF600055F80B302BB9019B043B9D421A462ED35A
:10AF70003C61384601F059F8002824DB01362846A8
:10AF80004FF0000C58F8042BD0F800E093B2ACEB73
:10AF90000303120C13FA8EF3C2EB1E4202EB2342A0
:10AFA0009BB243EA0243C14540F8043B4FEA224CBE
:10AFB000E8D255F8242005EB840322B9043B9D42D6
:10AFC0001A460AD33C61304603B0BDE8F08F1268E0
:10AFD000043B002ACCD1013CC7E71268043B002A9D
:10AFE000F0D1013CEBE70020EEE70000000000009C
:10AFF0002DE9F04F446A99B016461F46CDE9046723
:10B00000DDF8948005463CB9102000F0C7FDC0E98A
:10B01000014468620460C4606B6A196851B15A687F
:10B020004A60012393408B60284600F009FE6B6A5A
:10B0300000221A603B1EB9BF23F000430593002392
:10B04000C8F80030DDF81490A74BBCBF0122C8F847
:10B05000002033EA090319D1249A42F20F731360D6
:10B06000C9F31303334300F06D85269B53B99F4BFF
:10B0700023E09F4B03930833269A1360039819B07B
:10B08000BDE8F08F994B03930333F5E7DDE9043412
:10B09000CDE90C34DDE90C0100220023FBF7FCFCB8
:10B0A000804660B1249A01231360269B002B00F098
:10B0B0004685904B269A1360013B0393DEE716AB5F
:10B0C000019317AB00932846DDE90C2301F03EF80D
:10B0D000C9F30A548346002C7ED00D9BCDF84C80DA
:10B0E000C3F31303DDE90C0143F07F5141F4401138
:10B0F000A4F2FF34804B0022FBF7AEF874A3D3E92F
:10B100000023FBF761FA74A3D3E90023FBF7A6F849
:10B11000064620460F46FBF7EDF971A3D3E900235D
:10B12000FBF752FA02460B4630463946FBF796F8D3
:10B1300006460F46FBF7F8FC002282460023304605
:10B140003946FBF7B3FC48B15046FBF7D3F932461A
:10B150003B46FBF7A1FC08B90AF1FF3ABAF1160F1A
:10B1600057D8664B03EBCA03D3E90023DDE90C0192
:10B17000FBF79CFC00284ED00AF1FF3A00230F9306
:10B18000169B1C1B631E099345BFC4F10103069364
:10B19000002300234CBF09930693BAF1000F3CDB58
:10B1A000099BCDF838A05344099300230A93229BAE
:10B1B000092B00F2B580052BC4BF043B2293229BD0
:10B1C000A3F10203CCBF00240124032B00F2B480BE
:10B1D000DFE803F02D987AA4DDE916431C4404F25D
:10B1E0003243202BC3BFC3F1400304F2124009FADB
:10B1F00003F3C3F12003C6BF26FA00F0184306FA92
:10B2000003F0FBF767F90123A1F1F871013C1393F7
:10B2100070E70123B3E70F90B2E7069BA3EB0A03A5
:10B220000693CAF100030A9300230E93BFE700239D
:10B230000B93239B002B00F382804FF00109CDF884
:10B2400020904B46CDF88C906E6A002272600422EA
:10B2500002F114009842716877D9284600F0BCFCCE
:10B260006B6A30601B680393089B0E2B00F2EE8024
:10B27000002C00F0EB80BAF1000F7ADD1F4A0AF0D3
:10B280000F0302EBC303D3E900341AF4807FCDE946
:10B2900010344FEA2A145CD0194BDDE90C01D3E9D4
:10B2A0000823FBF7BBFACDE9040104F00F040327E0
:10B2B000134E002C4FD1DDE91023DDE90401FBF72B
:10B2C000ADFACDE904016EE00123B1E7AFF30080F0
:10B2D00061436F63A787D23FB3C8608B288AC63F9C
:10B2E000FB799F501344D33F0000F07F9DFA020882
:10B2F00094FA0208292403080000F83FD0FA020853
:10B30000A8FA020800230B93239B0AEB030909F117
:10B310000103012B0893B8BF012395E70123F2E74E
:10B320000124002322930B944FF0FF390022CDF823
:10B3300020901223239287E701230B93F4E7DDF893
:10B340008C90CDF820904B467EE701317160520021
:10B350007EE70227ACE7E10708D5DDE91001D6E971
:10B360000023FBF731F9CDE91001013764100836ED
:10B370009FE700F0A580CAF10004A44BA44E04F09E
:10B380000F0203EBC203D3E90023DDE90C01FBF755
:10B390001BF9CDE90401241100230227002C40F001
:10B3A0008480002B8DD10F9B002B00F08B80DDE97A
:10B3B0000434CDE91034DDE91001964B0022FBF78F
:10B3C00075FB00287ED0089B002B7BD0B9F1000FC5
:10B3D00038DDDDE91001904B0022FBF7F5F8CDE9EF
:10B3E00004010AF1FF3801374C463846FBF782F872
:10B3F000DDE90423FBF7E8F8884B0022FAF72EFF7B
:10B40000A1F15076CDE910011196002C5DD1DDE956
:10B410000401834B0022FAF71FFF02460B46CDE9D9
:10B420000423109A3346FBF75FFB002840F0978215
:10B43000DDE90401109A06F10043FBF737FB002811
:10B4400040F08B82DDE90C34CDE90434179B002BEE
:10B45000C0F25181BAF10E0F00F34D816B4B03EB3B
:10B46000CA03D3E90034CDE90634239B002B80F2D4
:10B47000DB80089B002B00F3D78040F06D82684B87
:10B480000022DDE90601FBF79FF8DDE90423FBF765
:10B4900021FB089C2646002840F04382039F31236D
:10B4A00007F8013B0AF1010A3FE2E20705D5D6E9B8
:10B4B0000023FBF789F801370123641008366DE794
:10B4C000022770E7089CD0468FE703994F4B214431
:10B4D00012910B9903EBC403DDE9106753E90223D2
:10B4E000002946D04F490020FBF798F93B463246E9
:10B4F000FAF7B2FECDE91001039FDDE90401FBF785
:10B5000013FB0446FAF7F6FF02460B46DDE9040199
:10B51000FAF7A2FE303402460B46CDE9042307F8C1
:10B52000014BDDE91023FBF7C1FA002865D1DDE905
:10B53000042338490020FAF78FFEDDE91023FBF7DA
:10B54000B5FA002840F0B680129B9F423FF47AAFD4
:10B55000DDE91001304B0022FBF736F82E4BCDE928
:10B5600010010022DDE90401FBF72EF8CDE904010A
:10B57000C3E730463946FBF727F8CDE91001129BA7
:10B58000039C1493DDE90401FBF7CEFA1590FAF75A
:10B59000B1FF02460B46DDE90401FAF75DFE159B9B
:10B5A000303304F8013B129B9C4206460F464FF095
:10B5B000000224D11B4BDDE91001FAF74FFE0246D1
:10B5C0000B4630463946FBF78FFA002871D1DDE98A
:10B5D000102314490020FAF73FFE02460B4630467E
:10B5E0003946FBF763FA00283FF42CAF149F7B1E0B
:10B5F000149317F8013C302BF8D0C24649E0064BB3
:10B60000FAF7E2FFCDE90401BCE700BFD0FA020877
:10B61000A8FA02080000F03F0000244000001C408F
:10B62000000014400000E03FDDE90489039FDDE9EC
:10B63000062340464946FBF7F1F8FBF775FA044646
:10B64000FAF758FFDDE90623FAF7BEFF04F13006EA
:10B650000B46024649464046FAF7FEFD07F8016BE5
:10B66000039E089BBE1BB34238D102460B46FAF735
:10B67000F5FDDDE9062380468946FBF735FA58BB20
:10B68000DDE9062340464946FBF706FA08B1E10723
:10B6900022D42846594600F0D3FA00233B70249B5D
:10B6A0000AF101001860269B002B3FF4E7AC1F60F5
:10B6B000E4E427463B461F4613F8012D392A07D1FB
:10B6C000039A9A42F7D10399302208F101080A70CF
:10B6D0001A7801321A7090E7D046EBE7A14B0022AE
:10B6E000FAF772FF0022002380468946FBF7D4F95F
:10B6F00000289CD0CDE70B9A002A00F0CD80229A3A
:10B70000012A00F3AF80139A002A00F0A78003F209
:10B7100033430A9C069F069A1A440692099A01210D
:10B720001A442846099200F02EFB0646002F0CDD35
:10B73000099B002B09DDBB42069AA8BF3B46D21AE3
:10B740000692099AFF1AD31A09930A9BF3B10B9B2D
:10B75000002B00F0A580002C10DD31462246284643
:10B7600000F0B6FB5A4601460646284600F014FB98
:10B7700059468046284600F063FAC3460A9B1A1BC6
:10B7800004D05946284600F0A3FB834601212846F1
:10B7900000F0F9FA0E9B002B044640F383801A4612
:10B7A0000146284600F094FB229B012B04467CDDD9
:10B7B0004FF00008236904EB8303186900F095FA41
:10B7C000C0F12000099B184410F01F0000F08E808B
:10B7D000C0F12003042B40F38780C0F11C00069BBE
:10B7E00003440693099B034407440993069B002BDB
:10B7F00005DD59461A46284600F0B8FB8346099BEA
:10B80000002B05DD21461A46284600F0AFFB044612
:10B810000F9B002B6CD02146584600F006FC0028F8
:10B8200066DA002359460A22284600F020FA0B9BCC
:10B830000AF1FF3A8346002B00F08B81314600234A
:10B840000A22284600F013FAB9F1000F064600F369
:10B850009180229B022B40F38D8051E0169BC3F117
:10B86000360356E7089B5C1E0A9BA342BFBF0A9B98
:10B870000A94E21A0E9BB6BF9B181C1B0E93089BE2
:10B88000B8BF0024002BB9BF069B089A069F089BEF
:10B89000BCBF9F1A00233EE70A9C069F0B9E45E70C
:10B8A0000A9A6EE7229B012B19DC049BBBB9059B0E
:10B8B000C3F313039BB9059B23F000431B0D1B052A
:10B8C00083B1069B01330693099B013309934FF023
:10B8D00001080E9B002B7FF46DAF012072E74FF043
:10B8E0000008F6E79846F4E780D018461C3076E763
:10B8F000089B002B38DC229B022B35DDDDF82090E5
:10B90000B9F1000F0DD121464B460522284600F023
:10B91000AEF901460446584600F087FB00283FF781
:10B92000BDAD239B039F6FEA030A4FF00008214639
:10B93000284600F085F9002E3FF4ABAEB8F1000FB9
:10B9400005D0B04503D04146284600F079F931468C
:10B95000284600F075F99CE600242646E1E7C24639
:10B9600026469BE5000024400B9BDDF82090002B31
:10B9700000F0F680002F05DD31463A46284600F0FB
:10B98000F5FA0646B8F1000F55D07168284600F068
:10B9900023F9326902320746920006F10C010C309D
:10B9A00000F00CF901223946284600F0DFFA039B2B
:10B9B00001330893039B4B440A93049B03F0010358
:10B9C000B04609930646089B2146013B584604931E
:10B9D000FFF780FA034630330690414658460B93F2
:10B9E00000F023FB324681462146284600F038FB12
:10B9F000C2680B9B074602BB0146584600F015FB88
:10BA00000B9B024639462846CDE90B3200F018F967
:10BA1000229B0C9A089F43EA0201099B0B430B9B54
:10BA20000DD1392B29D0B9F1000F01DD069B31333F
:10BA3000049A13707BE73046B9E70122E2E7B9F1D7
:10BA4000000F06DB229941EA0909099959EA010127
:10BA500020D1002AECDD594601222846089300F047
:10BA600085FA2146834600F0E0FA0028089B02DCB4
:10BA7000DED1DA07DCD5392BD8D1049A39231370FB
:10BA80003B461F46013B17F8012C392A50D00132A2
:10BA90001A704CE7002A03DD392BEED00133C7E7DB
:10BAA000089A0A9902F8013C8A422AD05946002392
:10BAB0000A22284600F0DBF8B04583464FF0000329
:10BAC0004FF00A024146284607D100F0D0F88046E0
:10BAD0000646089B0133089375E700F0C8F8314625
